:020000040000FA
:060000000200D5020D9183
:03003300021701B0
:030043000204EEC6
:03005300020DB5E6
:10008300020CDA00000080FBE479217816B8000244
:100093008004F709D8FCE4900200788B790280028F
:1000A300F0A3D8FCD9FA7A8A7B039000E478137919
:1000B300018015E493A3AD82AE838A828B83F0A380
:1000C300AA82AB838D828E83D8E9D9E712093B12CA
:1000D300008675D0007581BF75100075110202008E
:1000E3008BEE1F8320832083208320872031050507
:1000F300003125BB0102E722C082C08389828A8343
:10010300BB0003E08002E493D083D08222BB000EC5
:10011300C082C0838A838982F0D083D08222BB01CC
:1001230001F7226016080808C6C313C618C613C60B
:1001330018C613C618C613C6D5E0EA22E026F0088F
:10014300A3E036F008A3E036F008A3E036F022E09F
:10015300F608A3E0F608A3E0F608A3E0F622CAC077
:10016300E0E6F0A308DAFAD0E0FA22600C08C6C38E
:1001730013C618C613C6D5E0F422700422600D1806
:10018300C6C333C608C633C6D5E0F41822251010FB
:10019300AF08F510400C15118008F5104002151139
:1001A300D2AF2200C0D0251010AF08F510500C05B7
:1001B300118008F51050020511D2AFD0D0222510BE
:1001C300F58210AF08F510400C15118008F51040AA
:1001D300021511D2AF851183222510F582E4351162
:1001E300F58322E4732510C582C0E0E51134FFC511
:1001F30083C0E0E510C3958224F910AF088583110D
:100203008582108008858311858210D2AFCEF0A33A
:10021300E520F0A37808E608F0A3DEFAEFF0A3E503
:100223008124FBF8E608F0A3E608F0A30808E60833
:10023300F0A3E608F0A315811581D0E0FED0E0F825
:1002430015811581E8C0E0EEC0E022851183851099
:1002530082E0A3FEE0A3F5207808E0A3F608DFFA26
:10026300E0A3FFE0A3C0E0E0A3C0E0E0A3C0E0E0C0
:10027300A3C0E010AF0885821085831180088582B2
:1002830010858311D2AFD083D08222C0D02510C570
:1002930082C0E0E51134FFC583C0E0E510C3958259
:1002A30024F310AF0885831185821080088583119C
:1002B300858210D2AFC8F0A3E9F0A3EAF0A3EBF074
:1002C300A37908E709F0A3D8FAECF0A3EDF0A3EEC5
:1002D300F0A3EFF0A3D0E0F0A3D0E0F0A3D0E0F0E0
:1002E300A3E520F0A3E5F0F0A32285118385108216
:1002F300E0C0E0A3E0F9A3E0FAA3E0FBA37808E001
:10030300F608A3DFFAE0FCA3E0FDA3E0FEA3E0FF11
:10031300A3E0C0E0A3E0C0E0A3E0F5D0A3E0F520B4
:10032300A3E0A3F5F010AF08858311858210800840
:10033300858311858210D2AFD082D083D0E0F8D0EC
:10034300E03274028000C0E0F4041201C1D0E01274
:0303530001612223
:1003580074F71201E8A2AFE433FEC2AF90620EE078
:10036800FF7403F0906211E0A2E05003020419A8A0
:1003780025A926E849700302040FC3E89440E994CC
:100388000040077C407528018005E8FC752800A816
:1003980023A9248C0874F4C398FA741A99FBC3E54A
:1003A800089AE49B4007E8FA74F4C39AFCECFA74E0
:1003B8009C28F8740339F9EA601EE9901EA0F0E859
:1003C800A3F0901EA4E054E0F0EAA3F075D60475FB
:1003D800D704E5D6A2E240FA9062117401F07825BC
:1003E800C3E69CF608E69400F6181818E62AF608FC
:1003F800E436F674F465237004741A652470127573
:100408002300752400800AE5286006752800740119
:10041800F0EF90620EF0EEA2E092AF7F0202024E81
:10042800C082C083791EE9F5D57A908AD4EA240877
:10043800500109E9F5D374082AF5D2901E9074701A
:10044800F0A374D9F0A3E4F0A3F0901E97E0540C45
:10045800F0441AF0901E96E0C2E7F0901E94E05423
:10046800E0F0A3E4F0901E94F0901E97E0C2E2F052
:10047800901E967413F0901E9CE0541FF0901E9FDF
:100488007452F0901E9E7420F0901EA27462F0A325
:100498007426F0A3E4F0901EA77442F0901EA67490
:1004A80020F0D2B8020BB074F81201E874081201F7
:1004B800DCE0F8A3E0F9E8496027ED901E98F0EC3D
:1004C800A3F0EBA3F0EAA3F0E9541FFAA3E054E089
:1004D8004AF0E8A3F075D60275D702E5D6A2E14046
:1004E800FA7F0102024EC0E074ED12028E74FF1210
:1004F8000190C2C0E5D1A2E0400302074A120CA154
:10050800E9851082851183F075F084A4F8A9F07448
:100518004F28F582740239F583858208858309A3FB
:10052800A3A3A3E02405FEE43400FFA2AFE43385CF
:100538001082851183F0C2AF7825E62EFA08E63FCF
:10054800FBEA2403F8E43BF9C3E894F1E9941A4080
:10055800030206927821E6249CF58208E63403F526
:1005680083E4F018E62401F608E436F674F465210D
:100578007004741A65227006752100752200080837
:1005880008E62401F608E436F67821E6249CF5828C
:1005980008E63403F583EEF018E62401F608E4369D
:1005A800F674F465217004741A65227006752100CA
:1005B800752200080808E62401F608E436F67821D2
:1005C800E6249CF58208E63403F583EFF018E62468
:1005D80001F608E436F674F465217004741A65228D
:1005E8007006752100752200080808E62401F6083F
:1005F800E436F6782174F4C396FA741A0896FBC3A5
:10060800EE9AEF9B50068E0A8F0B80048A0A8B0B9A
:10061800EEC3950AF50CEF950BF50D780A12034514
:10062800AC08AD097821E6249CFA08E63403FB12ED
:1006380004AF74021201A6E50C450D6023780C1274
:100648000345E508250AFCE509350BFD7A9C7B0383
:100658001204AF74021201A6850C21850D22801B9D
:100668007821E62EF608E63FF674F46521700474E6
:100678001A652270067521007522007825E62EF687
:1006880008E63FF675270002073CE52760030207E6
:100698003C7821E6249CF58208E63403F58374034C
:1006A800F018E62401F608E436F674F465217004BF
:1006B800741A65227006752100752200080808E67C
:1006C8002401F608E436F67821E6249CF58208E64B
:1006D8003403F583E4F018E62401F608E436F674EA
:1006E800F465217004741A6522700675210075225C
:1006F80000080808E62401F608E436F67821E6241E
:100708009CF58208E63403F583E4F018E62401F644
:1007180008E436F674F465217004741A65227006CC
:10072800752100752200080808E62401F608E43659
:10073800F6752701851082851183E0A2E092AF75D6
:10074800D1FE74011201A67F060202EDEBC313FB72
:10075800EA13FAEAF8EBF9E824FFFAE934FFFBE8D0
:1007680049601300000000000000000000000000C5
:100778000000000080DD2274F81201E8EAFEEBFFB9
:10078800EEF8EFF9E824FFFEE934FFFFE8496009D5
:100798007AE87B0312075480E77F0102024E74F760
:1007A8001201E8901FF8E493F8740193F974FF6854
:1007B800700374FF69600302093890020974AEF08F
:1007C800A37416F0900200E0702975B60EE5B4A285
:1007D800E750FAE5BAF8E5BB540328F5BC75B60E40
:1007E800E5B4A2E750FAE5BAF8E5BB540328F5BC2E
:1007F8007401F043B404E5B4A2E240FAE5BCF9E0C0
:10080800702975B60EE5B4A2E750FAE5BAF8E5BB6B
:10081800540328F5BC75B60EE5B4A2E750FAE5BA5C
:10082800F8E5BB540328F5BC7401F043B404E5B4FF
:10083800A2E240FAE5BC75F00A84A8F0E975F00A6E
:1008480084E5F0C454F02890020BF0900200E070A8
:100858002975B60EE5B4A2E750FAE5BAF8E5BB5437
:100868000328F5BC75B60EE5B4A2E750FAE5BAF868
:10087800E5BB540328F5BC7401F043B404E5B4A205
:10088800E240FAE5BCF9E0702975B60EE5B4A2E7D6
:1008980050FAE5BAF8E5BB540328F5BC75B60EE581
:1008A800B4A2E750FAE5BAF8E5BB540328F5BC74DE
:1008B80001F043B404E5B4A2E240FAE5BC75F00ADD
:1008C80084A8F0E975F00A84E5F0C454F028900291
:1008D8000CF07A03EAC3334401906272F074FE901C
:1008E8006271F07402900201F0A37409F0A37462BB
:1008F800F0A37473F0A3E054E0F0A37404F0900242
:1009080005E4F09002087442F09002077412F07443
:1009180002F5D575D40175D601906270E0D2E1F088
:10092800E5D6A2E040FA90627274FFF0906271F02E
:1009380002042375C68000E59EA2E640F9E5C65488
:10094800C74428F5C61207A6752AFF7529009061C5
:100958009074F5F09061FA7409F09061B27415F032
:100968009061AEE4F0906180E0C2E0F0782176001A
:100978000874296870F8E5A8F8C2AF90620EE0F92B
:100988007403F09062117408F0E990620EF0E8A226
:10099800E792AF120428752CFF90038AE0F8A3E0D1
:1009A800F990035BE8F0A3E9F090038CE0F8A3E08A
:1009B800F9E8FAE9FB7C007D008005E8F0A3E9F09E
:1009C80090035BE0F8A3E0F9EA687002EB6960481D
:1009D800E0F5838882E493F890035BE028F8A3E0CD
:1009E8003400F990035BE0FEA3E0F5838E82A3E474
:1009F80093640290035B70C3E0FCA3E0FD90035B8B
:100A0800E8F0A3E9F0EC4D600F8C828D83A3A3A3DB
:100A1800A3A3E4936401709D8C828D83A3A3A3A3F5
:100A2800A3A3A3E493A2E690037050047401800189
:100A3800E4F090036FE4F090620F7403F0E0A2E733
:100A480050FB90620BE0D2E1F0753200753300750F
:100A580034007535177536007417F0906207740105
:100A6800F0906209E4F0758B00C2E843AC20439A29
:100A78000253F3FEC28043FD01D29043FE01D2AF80
:100A880080487AFA7B0012077FE52C652D603BE5EC
:100A98002C24FC6003147020E52A701C75A90075CD
:100AA800B900539AFEC2A875E1EF75E1ED75D681DC
:100AB800C2BA759400752902E52D24FC60031470F0
:100AC80006752AFF752900852D2CE52C24FC60036A
:100AD8001470AF7401652970B012035880ABC082DE
:100AE800C08390020DE0601C14602224FB60271470
:100AF8007003020B8D147003020B95147003020B24
:100B08009D020BA490020FE0F52E020BA490020F99
:100B1800E0F52A020BA490020FE0906173F09002B6
:100B280010E0906172F0900211E0906175F090020F
:100B380012E0906174F0900213E0906171F09002FD
:100B480014E0906170F0900215E090616FF09002EF
:100B580016E090616EF0900217E090616DF09002DF
:100B680018E090616CF0900219E090616BF09002CF
:100B78001AE090616AF0906180E0D2E0F0906182C2
:100B8800E0D2E08016906180E0C2E0800E9061893A
:100B9800E0C2E58006906189E0D2E5F0800AC08273
:100BA800C0839003647404F0D083D0822274F81256
:100BB80001E8E52A6003020C7D7821760008742993
:100BC8006870F8E5A8F8C2AF90620EE0F97403F017
:100BD8009062117408F0E990620EF0E8A2E792AF13
:100BE80075C30075A20075A30075C30075A40075D0
:100BF800A50075A60075C30375A20075A30075C38B
:100C08003075A40075A50475A600900357E4F0A3F9
:100C18007404F0A3E4F0A3F053A1EF43A710C2C2F9
:100C2800D2BA75940975F005E52EA424D4F890611C
:100C38008FE0548048F075E1ED75A90175B901752B
:100C4800E900759100759B0075BF00C2899061A38A
:100C58007406F09061A5747FF0439A01D2A8752FAD
:100C680001744F2489901E93F07402901E92F075BF
:100C7800E1E37529010204E9E52A701C75A90075EC
:100C8800B900539AFEC2A875E1EF75E1ED75D681FA
:100C9800C2BA75940075290222C082C0837902E520
:100CA8002F6017752F007405244F901E93F0500184
:100CB80009E9901E92F079018015752F0174892435
:100CC8004F901E93F0500109E9901E92F0790002AE
:100CD8000BB0C0E0C0D0E8C0E0E9C0E0EAC0E0EB9B
:100CE800C0E0C082C083C0F0E5E9A2E15035E52F3D
:100CF80075F084A4F8A9F0744F28F8740239F975CE
:100D0800C311E5A288828983F0E5A3A3F0E5A4884E
:100D1800828983A3A3F0E5A588828983A3A3A3F08E
:100D280075E9FDE5E9A2E2503BE5D9FBC3948040B3
:100D38000B75E1EF75E1ED75E1E38025E52F75F0C1
:100D480084A4F8A9F0745328F582740239F583EB6A
:100D5800F0901E94E054E0F0EBA3F075D60175D73F
:100D68000175E9FB75E900759100759B00D0F0D01D
:100D780083D0828003D0E0FCD0E0FBD0E0FAD0E062
:100D8800F9D0E0F8D0D0D0E032C0E0C0D0E5BF6004
:100D98001575E1EF75E1EDE5D6A2E0500375D68152
:100DA80075E1E375BF0075BF00C28980D7C0E0C098
:100DB800D0E8C0E0E9C0E0EAC0E0EBC0E0ECC0E0A9
:100DC800C008C009C00AC00BC082C08374FF1201EA
:100DD80090E5A1A2E44003020F4890035778081257
:100DE8000152A909900357750800750904750A008E
:100DF800750B00780812013FA2AFE4338510828595
:100E08001183F0C2AF75C3309003577808120152AE
:100E1800E508F5A49003577808120152E509F5A5ED
:100E2800900357780812015274107808120126E5C9
:100E380008F5A6851082851183E0E0A2E092AF5301
:100E4800A1EFA2AFE433F0C2AF7825E62404FA0894
:100E5800E436FBC3EA94F1EB941A4003020F3D78A1
:100E680021E6249CF58208E63403F5837401F01822
:100E7800E62401F608E436F674F465217004741A61
:100E880065227006752100752200080808E624010D
:100E9800F608E436F67821E6249CF58208E6340361
:100EA800F5837401F018E62401F608E436F674F4C4
:100EB80065217004741A6522700675210075220078
:100EC800080808E62401F608E436F67821E6249CAA
:100ED800F58208E63403F583E4F018E62401F60801
:100EE800E436F674F465217004741A652270067588
:100EF8002100752200080808E62401F608E436F601
:100F08007821E6249CF58208E63403F583E9F01895
:100F1800E62401F608E436F674F465217004741AC0
:100F280065227006752100752200080808E624016C
:100F3800F608E436F6851082851183E0A2E092AFC8
:100F480074011201A6D083D082D00BD00AD009D068
:100F580008020D7D74F11201E890620EE0F50DE4CF
:100F6800F0906211E0FE900364E064087026EEA23F
:100F7800E0401C900378E0F8906200F090035DE098
:100F8800C39404500AE86004740380027402F09069
:100F98000364E4F0EEA2E25009906211E4F09003D9
:100FA80064F0EEA2E450239062117480F090036420
:100FB8007407F0E530453160098530828531831248
:100FC80001E6900364E4F002106AE0F874026870C5
:100FD8007AEEA2E0400302156E906216E0F8880CE3
:100FE800900371E0F9A3E0FAA3E0FBE860149062D3
:100FF80020E0120110E9240109E43AFA150CE50C85
:1010080070EC8808900374C3E09508F0A3E094009E
:10101800F0900371E0F9A3E0FAA3E0FBE928F9E412
:101028003AFA900371E9F0A3EAF0A3EBF0A3E0F831
:10103800A3E0F9E8499062116004744080027448A2
:10104800F0E849600302156E02154A7406687009D3
:101058008530828531831201E6900364E0600302E3
:101068001119EEA2E0400302156E79767A037B002F
:101078007808906220E0120110E9240109E43AFAA4
:10108800D8F08B308B31900376E054E0602624E072
:1010980070030214D024E070030214B824C0700353
:1010A80002140B24E070030214D924E07003021424
:1010B800C40211FAA3E014700302120224FE7003A2
:1010C80002114E24FE601124FC700302129124FECA
:1010D80070030212970211FA90037AE0F8A3E0F97C
:1010E800E84960030211FAA3E0F8A3E0F9E84960CF
:1010F800030211FA900378E05480F8A3E0F9E84974
:1011080060030211FA9003647408F0906211744845
:10111800F0900364E0F8740168600302156090625F
:1011280011E0A2E1500302156E7802900374E0FA10
:10113800A3E0FBC3EA9420EB940040030214F7EA0F
:10114800FC780A0214F990037CE0F8A3E0F9E84976
:1011580060030211FA90035DE06404600F90037A63
:10116800E0F8A3E0F9E84960030211FA900376E099
:10117800541F606F24FE707A90037AE0547FF5085C
:10118800900378E0706CE508C394065065E5089014
:10119800620EF0745D2508F8E43403F990037AE0F0
:1011A800548060139062117410F088828983A3A31D
:1011B800A3A3A3A3A3800F9062147420F0E8240CC7
:1011C800F582E439F5837403F090620EE4F090033D
:1011D80064E0F874046860030214E29062117460B9
:1011E800021118900378E06401700790036F74018E
:1011F80080DB9003647404F080E190037CE0F8A342
:10120800E0F9E84970EC90035DE06404600C900339
:101218007AE0F8A3E0F9E84970D8900376E0541F23
:10122800605624FE70CC90037AE0547FF508900352
:1012380078E070BEE508C3940650B7E50890620EE2
:10124800F0745D2508F8E43403F990037AE05480DB
:1012580060159062117440F088828983A3A3A3A3C8
:10126800A3A3A3E40211D09062147480F0E8240CC4
:10127800F582E439F58380EB900378E0640160033C
:101288000211FA90036F0211D4121E250211D69092
:10129800035DE0640460030211FA900376E06401E0
:1012A80060030211FA90037CE0F8A3E0F9E84960D2
:1012B800030211FA900378E0F8F50990037AE0FA4E
:1012C800A3E0FBEAF50A75080090035EE0F50B90D1
:1012D800038AE0FCA3E0FD90035BECF0A3EDF09043
:1012E800038CE0F50EA3E0F50F800890035BECF0AB
:1012F800A3EDF090035BE0FCA3E0FDE50E6C70034A
:10130800E50F6D607CE0F5838C82E493FC90035BD1
:10131800E02CFCA3E03400FD90035BE0FEA3E0F5C5
:10132800838E82A3E493640270C190035CE0FF9013
:10133800035BECF0A3EDF0EE4F6046E50B60118E19
:10134800828F83A3A3A3A3A3E493650B70A5803125
:10135800E508602D1508809B74026C70030211FA71
:1013680090035BE0FCA3E0F5838C82E493FC90039C
:101378005BE02CFCA3E03400FD90035BECF0A3EDF4
:10138800F090035BE0FCA3E0FDE50E6C7003E50F55
:101398006D70030211FAE0F5838C82A3E493FC7468
:1013A800046C70B490035BE0FEA3E0FF90035BE085
:1013B800FCA3E0F5838C82E493FC90035BE02CFCB7
:1013C800A3E03400FD90035BECF0A3EDF0EE4F706A
:1013D800030211FA8E828F83A3A3E493650A70A196
:1013E8008E828F83A3A3A3E49365097094745F2A04
:1013F800F58274033BF583E8F0EEFAEFFB121C323A
:101408000211D6A3E0600F24FA601124FE601324B1
:10141800FE60410211FA12185A0211D61219480236
:1014280011D6A3E0F8A3E0F9E84960030211FAA392
:10143800E0F8A3E0F9E84960030211FAA3E06401C7
:101448007002A3E060030211FA900371745EF0A3C6
:101458007403804B90035DE0640460030211FA900A
:101468000376E0648160030211FA900378E0F8A340
:10147800E0F9E84960030211FA90037CE064017026
:1014880002A3E060030211FA90037AE0245FF508F2
:10149800A3E03403F509900371E508F0A3E509F02A
:1014A800A3E4F0A304F0A3E4F090036404F080370D
:1014B8007530337531161216330211D675307975B9
:1014C80031151215790211D67530FE7531160211D3
:1014D800FA7530FB7531160211FA740168600874E8
:1014E8000268600302111390621174400211187CA3
:1014F80020ECFE900371E0F9A3E0FAA3E0FBEE60B4
:10150800101200F6906220F0E9240109E43AFADEAC
:10151800F08C08900371E0F9A3E0FAE92CF9E43AB9
:10152800FA900371E9F0A3EAF0A3EBF0A3C3E09506
:1015380008F0A3E09400F0E8906211F0ECC3942066
:101548005024E530453160098530828531831201A8
:10155800E6900364E4F0800E7405687009853082B3
:101568008531831201E6E50D90620EF07F080202D4
:101578004EC082C083900377E02440602624FE702A
:101588000302160C24FC600302162A900371742CC3
:10159800F0A3E4F0A304F0A3F0A3E4F09003640440
:1015A80002162F79767A037B00900371E9F0A3EA9B
:1015B800F0A3E4F0A37408F0A3E4F090036404F04B
:1015C80090039AE0120110A3E0097A031201109027
:1015D8000396E0097A03120110A3E0097A031201C5
:1015E80010900398E0097A03120110A3E0097A0326
:1015F800120110097A037401120110097A03E41226
:1016080001108024900364E0701E7401F09003714F
:101618007480F0A37403F0A3E4F0A3740AF0A3E4C5
:1016280080059003647404F0020BB0C082C08390FC
:101638000377E0243F70030216C524FE70030216E8
:10164800E51470030216F814606924FC700302168E
:10165800F824FA70030216F814600914600C146078
:101668000F0216F2120BB50216F8120C800216F8C9
:10167800900364E0F8703290037AE090020DF090E5
:10168800037CE0F890020EF0900371740FF0A374DD
:1016980002F0A3E4F090037DE0F9900374E8F0A36E
:1016A800E9F0900364740280467402687042120A7A
:1016B800E6803D90037AE0540FF52D803390036463
:1016C800E0702D7402F0900374740AF0A3E4F090B3
:1016D80003717480F0A37403F0A3E4801290037480
:1016E800E4F0A3F09003640480059003647404F0AC
:1016F800020BB0020BA6020BA6C0E0C0D0E8C0E007
:10170800E9C0E0EAC0E0EBC0E0ECC0E0EDC0E0C05A
:1017180008C009C082C083C0F0E59EA2E640FA90E6
:101728006206E0FAA2E25035A835E890620BF0F5BF
:10173800088536097404780812016EE50890620776
:10174800F08535088536097409780812016EE508B0
:10175800543E906209F0906201E0D2E0F07832EAFB
:1017680046F608E446F6906202E0F508750900744A
:1017780004780812017D7832E50846F608E509463E
:10178800F6906204E0F508750900740978081201FA
:101798007D783246F608E50946F6EAA2E050037578
:1017A800340174065A6003753400E58BA2E55006CF
:1017B800758BDF753400A832A933E8540460677864
:1017C80032E654FBF608E654FFF690035D7402F027
:1017D800A3E4F0900364F0785D790388828983A399
:1017E800A3A3A3A3A3A3A37403F088828983A3A8B4
:1017F80082A983E864627003E9640370DE785D7926
:1018080003E8240DF582E439F5837403F0888289AE
:1018180083A3A882A983E864627003E9640370E182
:10182800753000753100A832A933E85410600E787D
:1018380032E654EFF608E654FFF6120F5C758B009B
:10184800C2E8D0F0D083D082D009D008D0E0FD0221
:101858000D7D74F71201E8900378E0F8A3E0F9E849
:10186800496003021941A3E0F8A3E06003021941AB
:10187800A3E064027002A3E06003021941900376BA
:10188800E024806009146054146061021941E86022
:1018980003021941900370E0600478018002780027
:1018A80090037EE8F0A3E4F090036FE0600A9003F1
:1018B8007EE04402F0A3E4F0900364E0640460195D
:1018C800900371747EF0A37403F0A3E4F0A3740290
:1018D800F0A3E4F090036404F002042390035DE0B5
:1018E8006404705590037EE4F0A380CBE8547FF540
:1018F8000890035DE064047040E508C3940650391D
:10190800745D2508F582E43403F583E85480601893
:10191800A3A3A3A3A3A3A3E0640370047801800294
:10192800780090037EE8808CE582240CF5825002D2
:101938000583E0640370E980E3900364740480988D
:1019480074F61201E8900378E0F8A3E014600C1430
:101958006078147003021A86021B2190038AE0F84B
:10196800A3E0F990035BE8F0A3E9F07508007509B6
:101978000090038CE0FAA3E0FB8005E8F0A3E9F00F
:1019880090035BE0F8A3E0F9EA687002EB6960375E
:10199800E0F5838882E493F890035BE028F8A3E0FD
:1019A8003400F990035BE0FCA3E0F5838C82A3E4A8
:1019B80093640190035B70C3E0F508A3E0F5099018
:1019C800035BE8F0A3E9F0021AFDE8FC90038AE063
:1019D800F8A3E0F990035BE8F0A3E9F090038CE04A
:1019E800FAA3E0FB80011C7508007509008005E872
:1019F800F0A3E9F090035BE0F8A3E0F9EA6870026D
:101A0800EB69603FE0F5838882E493F890035BE03C
:101A180028F8A3E03400F990035BE0FDA3E0F58328
:101A28008D82A3E493640290035B70C3E0F508A37E
:101A3800E0F50990035BE8F0A3E9F0ED45096003E0
:101A4800EC70A3900371E508F0A3E509F0A3748096
:101A5800F0900371E0F9A3E0FA7B80E92402F9E44D
:101A68003AFA1200F6FC1919E0FAA3E92403F9E49A
:101A78003AFA1200F6F9ECA3F0A3E9021B1DE8FDFF
:101A880090038AE0F8A3E0F990035BE8F0A3E9F09B
:101A980090038CE0FAA3E0FB750800750900800547
:101AA800E8F0A3E9F090035BE0F8A3E0F9EA6870D6
:101AB80002EB696037E0F5838882E493F890035B72
:101AC800E028F8A3E03400F990035BE0FCA3E0F51C
:101AD800838C82A3E493640390035B70C3E0F508EE
:101AE800A3E0F50990035BE8F0A3E9F0EDFC74FFCF
:101AF8002C1D0470A3900371E508F0A3E509F0A379
:101B08007480F0900371E0F9A3E0FAA37B801200DF
:101B1800F6A3F0A3E4F0021BEA900371E4F0A3F04B
:101B2800A3F090038EE0F8A3E0F9A3E0FAA3E0FBAA
:101B3800EAC398F508EB99F509E50854F8AB094BA1
:101B48007003021BF9E8FAE9FB7403780812016EC6
:101B5800A808A909900378E0F508A3E0F5098A82A6
:101B68008B83E493AE096E7063A3E4936508705C9D
:101B780090037AE0F508A3E0F5098A828B83A3A392
:101B8800E493AE096E70458A828B83A3A3A3E49382
:101B9800650870388A828B83A3A3A3A3E493F5080E
:101BA800740193F509900371E508F0A3E509F0A322
:101BB8007480F08A828B83A3A3A3A3A3A3E493FED8
:101BC800740193FF900374EEF0A3EFF0EA2408FA8F
:101BD80050010BE824FF18E934FFF9E849600302D3
:101BE8001B5C900371E0F9A3E0FA8A09E9450970E2
:101BF800079003647404802C900364E064046025F7
:101C080090037CE0FAA3E0FB900374E0F8A3E0F90A
:101C1800C3EA98EB995008900374EAF0A3EBF090AC
:101C280003647401F07F0302024E74F11201E8EAC2
:101C38002404F50EE43BF50F850E82F583E493FC4E
:101C48006035900392E0FEA3E0FF8E828F83E493D9
:101C5800F8740193F9EA687002EB69601AEE2404DB
:101C6800FE50010F8E828F83E493F8740193F9EA92
:101C7800687002EB6970E67900EC7003021E22803E
:101C880005EAF0A3EBF090035BE0FAA3E0FB900316
:101C98008CE06A7003A3E06B7003021E1090035B74
:101CA800E0F8A3E0F5838882E493FA90035BE02AE6
:101CB800FAA3E03400FBE0F5838882A3E49364058B
:101CC80090035B70BCE0FCA3E0FD90035BEAF0A32B
:101CD800EBF0EC4D7003021E10EC2402F50CE43D11
:101CE800F50D850C82F583E493540FF50A90620E86
:101CF800F0750B008C828D83A3A3A3A3E493240720
:101D0800F508A3E4933400F5097403780812016E0A
:101D1800AA08850C82850D8393A2E7507290621100
:101D28007448F0906211E0A2E3500890620EE065FA
:101D38000A60F09062117408F0906211E0A2E3501A
:101D48000890620EE0650A60F08C828D83A3A3A3DD
:101D5800E493540364017003750B40750801750919
:101D680000E50A780812017D8E828F83A3A393551C
:101D7800086006E50BD2E0F50BE50B906212F0EA7D
:101D8800906210F07464250AF582E434038071903F
:101D980062147490F0906214E0A2E3500890620E0E
:101DA800E0650A60F09062147410F0906214E0A28A
:101DB800E3500890620EE0650A60F08C828D83A380
:101DC800A3A3E493540364017003750B40750801E1
:101DD800750900E50A780812017D8E828F83A3A316
:101DE800A39355086006E50BD2E0F50BE50B90626E
:101DF80015F0EA906213F07469250AF582E4340359
:101E0800F583E4F090620EF009850E82850F83E475
:101E180093F8E9C3985003021C8E02157474F512E6
:101E280001E890035DE064027003021F8C90037A5E
:101E3800E0F8A3E0F9E8496003021F8CA3E0F8A3E7
:101E4800E0F9E8496003021F8C900378E0F8A3E00A
:101E58006003021F8CE87003021F94F50890038A40
:101E6800E0FAA3E0FB90035BEAF0A3EBF090038CAD
:101E7800E0FEA3E0FF800890035BEAF0A3EBF0909C
:101E8800035BE0FAA3E0FBEE6A7002EF6B700302FB
:101E98001F8CE0F5838A82E493FA90035BE02AFAC8
:101EA800A3E03400FB90035BE0FCA3E0F5838C82A5
:101EB800A3E493640270C090035CE0FD90035BEAC6
:101EC800F0A3EBF0EC4D7003021F8C8C828D83A382
:101ED800A3A3A3A3E493650870A590035D7404F01D
:101EE800E8A3F0750800EC2404FEE43DFF8E828F21
:101EF80083E4937003021FE785080A745F250AF5D7
:101F080082E43403F583E4F090038CE0F50AA3E05F
:101F1800F50B7A007B008005E8F0A3E9F090035BFD
:101F2800E0F8A3E0F9E50A687003E50B696035E0BD
:101F3800F5838882E493F890035BE028F8A3E03403
:101F480000F990035BE0FCA3E0F5838C82A3E493A3
:101F5800640490035B70C1E0FAA3E0FB90035BE8C4
:101F6800F0A3E9F08A828B83A3A3A3E49370A3125E
:101F78001C3205088E828F83E493F8E508C39850D5
:101F88005E021F009003647404F0805390035EF0B7
:101F980090035D7403F0785D790388828983A3A335
:101FA800A3A3A3A3A3A37403F088828983A3A8820D
:101FB800A983E864627003E9640370DE785D7903DD
:101FC800E8240DF582E439F5837403F08882898367
:101FD800A3A882A983E864627003E9640370E17FBF
:101FE8000402024EAAAA12010002000000205104B5
:101FF800FFFFFFFF01020001090219000101008033
:10200800320904000001FFFFFF00070583024000BA
:102018000504030904240354006500780061007373
:1020280000200049006E0073007400720075006D96
:102038000065006E007400730024034300430032FF
:1020480000350033003100200055005300420020C5
:102058000044006F006E0067006C006500120330DA
:102068000030003000300030003000300037000C05
:0F2078000343004500420041004C0009200000D6
:04000005000000D522
:00000001FF
